{
  "_format": "hh-sol-artifact-1",
  "contractName": "NFT_BASE",
  "sourceName": "contracts/ERC721.sol",
  "abi": [
    {
      "inputs": [],
      "stateMutability": "nonpayable",
      "type": "constructor"
    },
    {
      "anonymous": false,
      "inputs": [
        {
          "indexed": true,
          "internalType": "address",
          "name": "owner",
          "type": "address"
        },
        {
          "indexed": true,
          "internalType": "address",
          "name": "approved",
          "type": "address"
        },
        {
          "indexed": true,
          "internalType": "uint256",
          "name": "tokenId",
          "type": "uint256"
        }
      ],
      "name": "Approval",
      "type": "event"
    },
    {
      "anonymous": false,
      "inputs": [
        {
          "indexed": true,
          "internalType": "address",
          "name": "owner",
          "type": "address"
        },
        {
          "indexed": true,
          "internalType": "address",
          "name": "operator",
          "type": "address"
        },
        {
          "indexed": false,
          "internalType": "bool",
          "name": "approved",
          "type": "bool"
        }
      ],
      "name": "ApprovalForAll",
      "type": "event"
    },
    {
      "anonymous": false,
      "inputs": [
        {
          "indexed": true,
          "internalType": "address",
          "name": "previousOwner",
          "type": "address"
        },
        {
          "indexed": true,
          "internalType": "address",
          "name": "newOwner",
          "type": "address"
        }
      ],
      "name": "OwnershipTransferred",
      "type": "event"
    },
    {
      "anonymous": false,
      "inputs": [
        {
          "indexed": true,
          "internalType": "address",
          "name": "from",
          "type": "address"
        },
        {
          "indexed": true,
          "internalType": "address",
          "name": "to",
          "type": "address"
        },
        {
          "indexed": true,
          "internalType": "uint256",
          "name": "tokenId",
          "type": "uint256"
        }
      ],
      "name": "Transfer",
      "type": "event"
    },
    {
      "inputs": [],
      "name": "_initialized",
      "outputs": [
        {
          "internalType": "bool",
          "name": "",
          "type": "bool"
        }
      ],
      "stateMutability": "view",
      "type": "function"
    },
    {
      "inputs": [
        {
          "internalType": "address",
          "name": "to",
          "type": "address"
        },
        {
          "internalType": "uint256",
          "name": "tokenId",
          "type": "uint256"
        }
      ],
      "name": "approve",
      "outputs": [],
      "stateMutability": "nonpayable",
      "type": "function"
    },
    {
      "inputs": [
        {
          "internalType": "address",
          "name": "owner",
          "type": "address"
        }
      ],
      "name": "balanceOf",
      "outputs": [
        {
          "internalType": "uint256",
          "name": "",
          "type": "uint256"
        }
      ],
      "stateMutability": "view",
      "type": "function"
    },
    {
      "inputs": [],
      "name": "baseURI",
      "outputs": [
        {
          "internalType": "string",
          "name": "",
          "type": "string"
        }
      ],
      "stateMutability": "view",
      "type": "function"
    },
    {
      "inputs": [
        {
          "internalType": "uint256",
          "name": "tokenId",
          "type": "uint256"
        }
      ],
      "name": "exists",
      "outputs": [
        {
          "internalType": "bool",
          "name": "",
          "type": "bool"
        }
      ],
      "stateMutability": "view",
      "type": "function"
    },
    {
      "inputs": [
        {
          "internalType": "uint256",
          "name": "tokenId",
          "type": "uint256"
        }
      ],
      "name": "getApproved",
      "outputs": [
        {
          "internalType": "address",
          "name": "",
          "type": "address"
        }
      ],
      "stateMutability": "view",
      "type": "function"
    },
    {
      "inputs": [
        {
          "internalType": "string",
          "name": "name_",
          "type": "string"
        },
        {
          "internalType": "string",
          "name": "symbol_",
          "type": "string"
        },
        {
          "internalType": "address",
          "name": "owner_",
          "type": "address"
        },
        {
          "internalType": "uint256",
          "name": "amount",
          "type": "uint256"
        },
        {
          "internalType": "address",
          "name": "market",
          "type": "address"
        }
      ],
      "name": "initialize",
      "outputs": [],
      "stateMutability": "nonpayable",
      "type": "function"
    },
    {
      "inputs": [
        {
          "internalType": "address",
          "name": "owner",
          "type": "address"
        },
        {
          "internalType": "address",
          "name": "operator",
          "type": "address"
        }
      ],
      "name": "isApprovedForAll",
      "outputs": [
        {
          "internalType": "bool",
          "name": "",
          "type": "bool"
        }
      ],
      "stateMutability": "view",
      "type": "function"
    },
    {
      "inputs": [],
      "name": "name",
      "outputs": [
        {
          "internalType": "string",
          "name": "",
          "type": "string"
        }
      ],
      "stateMutability": "view",
      "type": "function"
    },
    {
      "inputs": [],
      "name": "owner",
      "outputs": [
        {
          "internalType": "address",
          "name": "",
          "type": "address"
        }
      ],
      "stateMutability": "view",
      "type": "function"
    },
    {
      "inputs": [
        {
          "internalType": "uint256",
          "name": "tokenId",
          "type": "uint256"
        }
      ],
      "name": "ownerOf",
      "outputs": [
        {
          "internalType": "address",
          "name": "",
          "type": "address"
        }
      ],
      "stateMutability": "view",
      "type": "function"
    },
    {
      "inputs": [],
      "name": "renounceOwnership",
      "outputs": [],
      "stateMutability": "nonpayable",
      "type": "function"
    },
    {
      "inputs": [
        {
          "internalType": "address",
          "name": "to",
          "type": "address"
        }
      ],
      "name": "safeMint",
      "outputs": [],
      "stateMutability": "nonpayable",
      "type": "function"
    },
    {
      "inputs": [
        {
          "internalType": "address",
          "name": "from",
          "type": "address"
        },
        {
          "internalType": "address",
          "name": "to",
          "type": "address"
        },
        {
          "internalType": "uint256",
          "name": "tokenId",
          "type": "uint256"
        }
      ],
      "name": "safeTransferFrom",
      "outputs": [],
      "stateMutability": "nonpayable",
      "type": "function"
    },
    {
      "inputs": [
        {
          "internalType": "address",
          "name": "from",
          "type": "address"
        },
        {
          "internalType": "address",
          "name": "to",
          "type": "address"
        },
        {
          "internalType": "uint256",
          "name": "tokenId",
          "type": "uint256"
        },
        {
          "internalType": "bytes",
          "name": "data",
          "type": "bytes"
        }
      ],
      "name": "safeTransferFrom",
      "outputs": [],
      "stateMutability": "nonpayable",
      "type": "function"
    },
    {
      "inputs": [
        {
          "internalType": "address",
          "name": "operator",
          "type": "address"
        },
        {
          "internalType": "bool",
          "name": "approved",
          "type": "bool"
        }
      ],
      "name": "setApprovalForAll",
      "outputs": [],
      "stateMutability": "nonpayable",
      "type": "function"
    },
    {
      "inputs": [
        {
          "internalType": "string",
          "name": "newBaseTokenURI",
          "type": "string"
        }
      ],
      "name": "setBaseURI",
      "outputs": [],
      "stateMutability": "nonpayable",
      "type": "function"
    },
    {
      "inputs": [
        {
          "internalType": "uint256",
          "name": "tokenId",
          "type": "uint256"
        },
        {
          "internalType": "string",
          "name": "_tokenURI",
          "type": "string"
        }
      ],
      "name": "setTokenURI",
      "outputs": [],
      "stateMutability": "nonpayable",
      "type": "function"
    },
    {
      "inputs": [
        {
          "internalType": "bytes4",
          "name": "interfaceId",
          "type": "bytes4"
        }
      ],
      "name": "supportsInterface",
      "outputs": [
        {
          "internalType": "bool",
          "name": "",
          "type": "bool"
        }
      ],
      "stateMutability": "view",
      "type": "function"
    },
    {
      "inputs": [],
      "name": "symbol",
      "outputs": [
        {
          "internalType": "string",
          "name": "",
          "type": "string"
        }
      ],
      "stateMutability": "view",
      "type": "function"
    },
    {
      "inputs": [
        {
          "internalType": "uint256",
          "name": "tokenId",
          "type": "uint256"
        }
      ],
      "name": "tokenURI",
      "outputs": [
        {
          "internalType": "string",
          "name": "",
          "type": "string"
        }
      ],
      "stateMutability": "view",
      "type": "function"
    },
    {
      "inputs": [
        {
          "internalType": "address",
          "name": "from",
          "type": "address"
        },
        {
          "internalType": "address",
          "name": "to",
          "type": "address"
        },
        {
          "internalType": "uint256",
          "name": "tokenId",
          "type": "uint256"
        }
      ],
      "name": "transferFrom",
      "outputs": [],
      "stateMutability": "nonpayable",
      "type": "function"
    },
    {
      "inputs": [
        {
          "internalType": "address",
          "name": "newOwner",
          "type": "address"
        }
      ],
      "name": "transferOwnership",
      "outputs": [],
      "stateMutability": "nonpayable",
      "type": "function"
    }
  ],
  "bytecode": "0x60806040523480156200001157600080fd5b506040518060400160405280600781526020017f4d79546f6b656e000000000000000000000000000000000000000000000000008152506040518060400160405280600381526020017f4d544b00000000000000000000000000000000000000000000000000000000008152506200009e620000926200011960201b60201c565b6200012160201b60201c565b8160019080519060200190620000b6929190620001e5565b508060029080519060200190620000cf929190620001e5565b50505033600960006101000a81548173ffffffffffffffffffffffffffffffffffffffff021916908373ffffffffffffffffffffffffffffffffffffffff160217905550620002fa565b600033905090565b60008060009054906101000a900473ffffffffffffffffffffffffffffffffffffffff169050816000806101000a81548173ffffffffffffffffffffffffffffffffffffffff021916908373ffffffffffffffffffffffffffffffffffffffff1602179055508173ffffffffffffffffffffffffffffffffffffffff168173ffffffffffffffffffffffffffffffffffffffff167f8be0079c531659141344cd1fd0a4f28419497f9722a3daafe3b4186f6b6457e060405160405180910390a35050565b828054620001f39062000295565b90600052602060002090601f01602090048101928262000217576000855562000263565b82601f106200023257805160ff191683800117855562000263565b8280016001018555821562000263579182015b828111156200026257825182559160200191906001019062000245565b5b50905062000272919062000276565b5090565b5b808211156200029157600081600090555060010162000277565b5090565b60006002820490506001821680620002ae57607f821691505b60208210811415620002c557620002c4620002cb565b5b50919050565b7f4e487b7100000000000000000000000000000000000000000000000000000000600052602260045260246000fd5b613048806200030a6000396000f3fe608060405234801561001057600080fd5b506004361061014d5760003560e01c80636352211e116100c3578063a1dd6a2e1161007c578063a1dd6a2e1461038a578063a22cb465146103a6578063b88d4fde146103c2578063c87b56dd146103de578063e985e9c51461040e578063f2fde38b1461043e5761014d565b80636352211e146102c65780636c0360eb146102f657806370a0823114610314578063715018a6146103445780638da5cb5b1461034e57806395d89b411461036c5761014d565b806323b872dd1161011557806323b872dd146102085780633072cf601461022457806340d097c31461024257806342842e0e1461025e5780634f558e791461027a57806355f804b3146102aa5761014d565b806301ffc9a71461015257806306fdde0314610182578063081812fc146101a0578063095ea7b3146101d0578063162094c4146101ec575b600080fd5b61016c600480360381019061016791906120e9565b61045a565b60405161017991906125e3565b60405180910390f35b61018a61053c565b60405161019791906125fe565b60405180910390f35b6101ba60048036038101906101b59190612230565b6105ce565b6040516101c7919061257c565b60405180910390f35b6101ea60048036038101906101e591906120ad565b610614565b005b61020660048036038101906102019190612259565b61072c565b005b610222600480360381019061021d9190611fa7565b610742565b005b61022c6107a2565b60405161023991906125e3565b60405180910390f35b61025c60048036038101906102579190611f42565b6107b5565b005b61027860048036038101906102739190611fa7565b6107c9565b005b610294600480360381019061028f9190612230565b6107e9565b6040516102a191906125e3565b60405180910390f35b6102c460048036038101906102bf919061213b565b6107fb565b005b6102e060048036038101906102db9190612230565b610819565b6040516102ed919061257c565b60405180910390f35b6102fe6108a0565b60405161030b91906125fe565b60405180910390f35b61032e60048036038101906103299190611f42565b6108af565b60405161033b9190612820565b60405180910390f35b61034c610967565b005b61035661097b565b604051610363919061257c565b60405180910390f35b6103746109a5565b60405161038191906125fe565b60405180910390f35b6103a4600480360381019061039f9190612180565b610a37565b005b6103c060048036038101906103bb9190612071565b610b26565b005b6103dc60048036038101906103d79190611ff6565b610b3c565b005b6103f860048036038101906103f39190612230565b610b9e565b60405161040591906125fe565b60405180910390f35b61042860048036038101906104239190611f6b565b610bf7565b60405161043591906125e3565b60405180910390f35b61045860048036038101906104539190611f42565b610c8b565b005b60007f80ac58cd000000000000000000000000000000000000000000000000000000007bffffffffffffffffffffffffffffffffffffffffffffffffffffffff1916827bffffffffffffffffffffffffffffffffffffffffffffffffffffffff1916148061052557507f5b5e139f000000000000000000000000000000000000000000000000000000007bffffffffffffffffffffffffffffffffffffffffffffffffffffffff1916827bffffffffffffffffffffffffffffffffffffffffffffffffffffffff1916145b80610535575061053482610d0f565b5b9050919050565b6060600c805461054b90612a3a565b80601f016020809104026020016040519081016040528092919081815260200182805461057790612a3a565b80156105c45780601f10610599576101008083540402835291602001916105c4565b820191906000526020600020905b8154815290600101906020018083116105a757829003601f168201915b5050505050905090565b60006105d982610d79565b6005600083815260200190815260200160002060009054906101000a900473ffffffffffffffffffffffffffffffffffffffff169050919050565b600061061f82610819565b90508073ffffffffffffffffffffffffffffffffffffffff168373ffffffffffffffffffffffffffffffffffffffff161415610690576040517f08c379a0000000000000000000000000000000000000000000000000000000008152600401610687906127e0565b60405180910390fd5b8073ffffffffffffffffffffffffffffffffffffffff166106af610dc4565b73ffffffffffffffffffffffffffffffffffffffff1614806106de57506106dd816106d8610dc4565b610bf7565b5b61071d576040517f08c379a000000000000000000000000000000000000000000000000000000000815260040161071490612800565b60405180910390fd5b6107278383610dcc565b505050565b610734610e85565b61073e8282610f03565b5050565b61075361074d610dc4565b82610f77565b610792576040517f08c379a000000000000000000000000000000000000000000000000000000000815260040161078990612620565b60405180910390fd5b61079d83838361100c565b505050565b600b60009054906101000a900460ff1681565b6107bd610e85565b6107c681611306565b50565b6107e483838360405180602001604052806000815250610b3c565b505050565b60006107f48261132c565b9050919050565b610803610e85565b8181600a9190610814929190611c96565b505050565b6000806108258361136d565b9050600073ffffffffffffffffffffffffffffffffffffffff168173ffffffffffffffffffffffffffffffffffffffff161415610897576040517f08c379a000000000000000000000000000000000000000000000000000000000815260040161088e906127c0565b60405180910390fd5b80915050919050565b60606108aa6113aa565b905090565b60008073ffffffffffffffffffffffffffffffffffffffff168273ffffffffffffffffffffffffffffffffffffffff161415610920576040517f08c379a000000000000000000000000000000000000000000000000000000000815260040161091790612700565b60405180910390fd5b600460008373ffffffffffffffffffffffffffffffffffffffff1673ffffffffffffffffffffffffffffffffffffffff168152602001908152602001600020549050919050565b61096f610e85565b610979600061143c565b565b6000600960009054906101000a900473ffffffffffffffffffffffffffffffffffffffff16905090565b6060600d80546109b490612a3a565b80601f01602080910402602001604051908101604052809291908181526020018280546109e090612a3a565b8015610a2d5780601f10610a0257610100808354040283529160200191610a2d565b820191906000526020600020905b815481529060010190602001808311610a1057829003601f168201915b5050505050905090565b600b60009054906101000a900460ff1615610a87576040517f08c379a0000000000000000000000000000000000000000000000000000000008152600401610a7e90612740565b60405180910390fd5b6001600b60006101000a81548160ff0219169083151502179055508686600c9190610ab3929190611c96565b508484600d9190610ac5929190611c96565b5082600960006101000a81548173ffffffffffffffffffffffffffffffffffffffff021916908373ffffffffffffffffffffffffffffffffffffffff160217905550610b1383826001611500565b610b1d838361166d565b50505050505050565b610b38610b31610dc4565b8383611500565b5050565b610b4d610b47610dc4565b83610f77565b610b8c576040517f08c379a0000000000000000000000000000000000000000000000000000000008152600401610b8390612620565b60405180910390fd5b610b9884848484611699565b50505050565b6060610ba98261132c565b610be8576040517f08c379a0000000000000000000000000000000000000000000000000000000008152600401610bdf906127a0565b60405180910390fd5b610bf06113aa565b9050919050565b6000600660008473ffffffffffffffffffffffffffffffffffffffff1673ffffffffffffffffffffffffffffffffffffffff16815260200190815260200160002060008373ffffffffffffffffffffffffffffffffffffffff1673ffffffffffffffffffffffffffffffffffffffff16815260200190815260200160002060009054906101000a900460ff16905092915050565b610c93610e85565b600073ffffffffffffffffffffffffffffffffffffffff168173ffffffffffffffffffffffffffffffffffffffff161415610d03576040517f08c379a0000000000000000000000000000000000000000000000000000000008152600401610cfa90612660565b60405180910390fd5b610d0c8161143c565b50565b60007f01ffc9a7000000000000000000000000000000000000000000000000000000007bffffffffffffffffffffffffffffffffffffffffffffffffffffffff1916827bffffffffffffffffffffffffffffffffffffffffffffffffffffffff1916149050919050565b610d828161132c565b610dc1576040517f08c379a0000000000000000000000000000000000000000000000000000000008152600401610db8906127c0565b60405180910390fd5b50565b600033905090565b816005600083815260200190815260200160002060006101000a81548173ffffffffffffffffffffffffffffffffffffffff021916908373ffffffffffffffffffffffffffffffffffffffff160217905550808273ffffffffffffffffffffffffffffffffffffffff16610e3f83610819565b73ffffffffffffffffffffffffffffffffffffffff167f8c5be1e5ebec7d5bd14f71427d1e84f3dd0314c0f7b2291e5b200ac8c7c3b92560405160405180910390a45050565b610e8d610dc4565b73ffffffffffffffffffffffffffffffffffffffff16610eab61097b565b73ffffffffffffffffffffffffffffffffffffffff1614610f01576040517f08c379a0000000000000000000000000000000000000000000000000000000008152600401610ef890612780565b60405180910390fd5b565b610f0c8261132c565b610f4b576040517f08c379a0000000000000000000000000000000000000000000000000000000008152600401610f4290612720565b60405180910390fd5b80600760008481526020019081526020016000209080519060200190610f72929190611d1c565b505050565b600080610f8383610819565b90508073ffffffffffffffffffffffffffffffffffffffff168473ffffffffffffffffffffffffffffffffffffffff161480610fc55750610fc48185610bf7565b5b8061100357508373ffffffffffffffffffffffffffffffffffffffff16610feb846105ce565b73ffffffffffffffffffffffffffffffffffffffff16145b91505092915050565b8273ffffffffffffffffffffffffffffffffffffffff1661102c82610819565b73ffffffffffffffffffffffffffffffffffffffff1614611082576040517f08c379a000000000000000000000000000000000000000000000000000000000815260040161107990612680565b60405180910390fd5b600073ffffffffffffffffffffffffffffffffffffffff168273ffffffffffffffffffffffffffffffffffffffff1614156110f2576040517f08c379a00000000000000000000000000000000000000000000000000000000081526004016110e9906126c0565b60405180910390fd5b6110ff83838360016116f5565b8273ffffffffffffffffffffffffffffffffffffffff1661111f82610819565b73ffffffffffffffffffffffffffffffffffffffff1614611175576040517f08c379a000000000000000000000000000000000000000000000000000000000815260040161116c90612680565b60405180910390fd5b6005600082815260200190815260200160002060006101000a81549073ffffffffffffffffffffffffffffffffffffffff02191690556001600460008573ffffffffffffffffffffffffffffffffffffffff1673ffffffffffffffffffffffffffffffffffffffff168152602001908152602001600020600082825403925050819055506001600460008473ffffffffffffffffffffffffffffffffffffffff1673ffffffffffffffffffffffffffffffffffffffff16815260200190815260200160002060008282540192505081905550816003600083815260200190815260200160002060006101000a81548173ffffffffffffffffffffffffffffffffffffffff021916908373ffffffffffffffffffffffffffffffffffffffff160217905550808273ffffffffffffffffffffffffffffffffffffffff168473ffffffffffffffffffffffffffffffffffffffff167fddf252ad1be2c89b69c2b068fc378daa952ba7f163c4a11628f55a4df523b3ef60405160405180910390a4611301838383600161181b565b505050565b60006113126008611821565b905061131e600861182f565b6113288282611845565b5050565b60008073ffffffffffffffffffffffffffffffffffffffff1661134e8361136d565b73ffffffffffffffffffffffffffffffffffffffff1614159050919050565b60006003600083815260200190815260200160002060009054906101000a900473ffffffffffffffffffffffffffffffffffffffff169050919050565b6060600a80546113b990612a3a565b80601f01602080910402602001604051908101604052809291908181526020018280546113e590612a3a565b80156114325780601f1061140757610100808354040283529160200191611432565b820191906000526020600020905b81548152906001019060200180831161141557829003601f168201915b5050505050905090565b60008060009054906101000a900473ffffffffffffffffffffffffffffffffffffffff169050816000806101000a81548173ffffffffffffffffffffffffffffffffffffffff021916908373ffffffffffffffffffffffffffffffffffffffff1602179055508173ffffffffffffffffffffffffffffffffffffffff168173ffffffffffffffffffffffffffffffffffffffff167f8be0079c531659141344cd1fd0a4f28419497f9722a3daafe3b4186f6b6457e060405160405180910390a35050565b8173ffffffffffffffffffffffffffffffffffffffff168373ffffffffffffffffffffffffffffffffffffffff16141561156f576040517f08c379a0000000000000000000000000000000000000000000000000000000008152600401611566906126e0565b60405180910390fd5b80600660008573ffffffffffffffffffffffffffffffffffffffff1673ffffffffffffffffffffffffffffffffffffffff16815260200190815260200160002060008473ffffffffffffffffffffffffffffffffffffffff1673ffffffffffffffffffffffffffffffffffffffff16815260200190815260200160002060006101000a81548160ff0219169083151502179055508173ffffffffffffffffffffffffffffffffffffffff168373ffffffffffffffffffffffffffffffffffffffff167f17307eab39ab6107e8899845ad3d59bd9653f200f220920489ca2b5937696c318360405161166091906125e3565b60405180910390a3505050565b60005b818110156116945761168183611306565b808061168c90612a9d565b915050611670565b505050565b6116a484848461100c565b6116b084848484611863565b6116ef576040517f08c379a00000000000000000000000000000000000000000000000000000000081526004016116e690612640565b60405180910390fd5b50505050565b600181111561181557600073ffffffffffffffffffffffffffffffffffffffff168473ffffffffffffffffffffffffffffffffffffffff16146117895780600460008673ffffffffffffffffffffffffffffffffffffffff1673ffffffffffffffffffffffffffffffffffffffff16815260200190815260200160002060008282546117819190612950565b925050819055505b600073ffffffffffffffffffffffffffffffffffffffff168373ffffffffffffffffffffffffffffffffffffffff16146118145780600460008573ffffffffffffffffffffffffffffffffffffffff1673ffffffffffffffffffffffffffffffffffffffff168152602001908152602001600020600082825461180c91906128fa565b925050819055505b5b50505050565b50505050565b600081600001549050919050565b6001816000016000828254019250508190555050565b61185f8282604051806020016040528060008152506119fa565b5050565b60006118848473ffffffffffffffffffffffffffffffffffffffff16611a55565b156119ed578373ffffffffffffffffffffffffffffffffffffffff1663150b7a026118ad610dc4565b8786866040518563ffffffff1660e01b81526004016118cf9493929190612597565b602060405180830381600087803b1580156118e957600080fd5b505af192505050801561191a57506040513d601f19601f820116820180604052508101906119179190612112565b60015b61199d573d806000811461194a576040519150601f19603f3d011682016040523d82523d6000602084013e61194f565b606091505b50600081511415611995576040517f08c379a000000000000000000000000000000000000000000000000000000000815260040161198c90612640565b60405180910390fd5b805181602001fd5b63150b7a0260e01b7bffffffffffffffffffffffffffffffffffffffffffffffffffffffff1916817bffffffffffffffffffffffffffffffffffffffffffffffffffffffff1916149150506119f2565b600190505b949350505050565b611a048383611a78565b611a116000848484611863565b611a50576040517f08c379a0000000000000000000000000000000000000000000000000000000008152600401611a4790612640565b60405180910390fd5b505050565b6000808273ffffffffffffffffffffffffffffffffffffffff163b119050919050565b600073ffffffffffffffffffffffffffffffffffffffff168273ffffffffffffffffffffffffffffffffffffffff161415611ae8576040517f08c379a0000000000000000000000000000000000000000000000000000000008152600401611adf90612760565b60405180910390fd5b611af18161132c565b15611b31576040517f08c379a0000000000000000000000000000000000000000000000000000000008152600401611b28906126a0565b60405180910390fd5b611b3f6000838360016116f5565b611b488161132c565b15611b88576040517f08c379a0000000000000000000000000000000000000000000000000000000008152600401611b7f906126a0565b60405180910390fd5b6001600460008473ffffffffffffffffffffffffffffffffffffffff1673ffffffffffffffffffffffffffffffffffffffff16815260200190815260200160002060008282540192505081905550816003600083815260200190815260200160002060006101000a81548173ffffffffffffffffffffffffffffffffffffffff021916908373ffffffffffffffffffffffffffffffffffffffff160217905550808273ffffffffffffffffffffffffffffffffffffffff16600073ffffffffffffffffffffffffffffffffffffffff167fddf252ad1be2c89b69c2b068fc378daa952ba7f163c4a11628f55a4df523b3ef60405160405180910390a4611c9260008383600161181b565b5050565b828054611ca290612a3a565b90600052602060002090601f016020900481019282611cc45760008555611d0b565b82601f10611cdd57803560ff1916838001178555611d0b565b82800160010185558215611d0b579182015b82811115611d0a578235825591602001919060010190611cef565b5b509050611d189190611da2565b5090565b828054611d2890612a3a565b90600052602060002090601f016020900481019282611d4a5760008555611d91565b82601f10611d6357805160ff1916838001178555611d91565b82800160010185558215611d91579182015b82811115611d90578251825591602001919060010190611d75565b5b509050611d9e9190611da2565b5090565b5b80821115611dbb576000816000905550600101611da3565b5090565b6000611dd2611dcd84612860565b61283b565b905082815260208101848484011115611dea57600080fd5b611df58482856129f8565b509392505050565b6000611e10611e0b84612891565b61283b565b905082815260208101848484011115611e2857600080fd5b611e338482856129f8565b509392505050565b600081359050611e4a81612fb6565b92915050565b600081359050611e5f81612fcd565b92915050565b600081359050611e7481612fe4565b92915050565b600081519050611e8981612fe4565b92915050565b600082601f830112611ea057600080fd5b8135611eb0848260208601611dbf565b91505092915050565b60008083601f840112611ecb57600080fd5b8235905067ffffffffffffffff811115611ee457600080fd5b602083019150836001820283011115611efc57600080fd5b9250929050565b600082601f830112611f1457600080fd5b8135611f24848260208601611dfd565b91505092915050565b600081359050611f3c81612ffb565b92915050565b600060208284031215611f5457600080fd5b6000611f6284828501611e3b565b91505092915050565b60008060408385031215611f7e57600080fd5b6000611f8c85828601611e3b565b9250506020611f9d85828601611e3b565b9150509250929050565b600080600060608486031215611fbc57600080fd5b6000611fca86828701611e3b565b9350506020611fdb86828701611e3b565b9250506040611fec86828701611f2d565b9150509250925092565b6000806000806080858703121561200c57600080fd5b600061201a87828801611e3b565b945050602061202b87828801611e3b565b935050604061203c87828801611f2d565b925050606085013567ffffffffffffffff81111561205957600080fd5b61206587828801611e8f565b91505092959194509250565b6000806040838503121561208457600080fd5b600061209285828601611e3b565b92505060206120a385828601611e50565b9150509250929050565b600080604083850312156120c057600080fd5b60006120ce85828601611e3b565b92505060206120df85828601611f2d565b9150509250929050565b6000602082840312156120fb57600080fd5b600061210984828501611e65565b91505092915050565b60006020828403121561212457600080fd5b600061213284828501611e7a565b91505092915050565b6000806020838503121561214e57600080fd5b600083013567ffffffffffffffff81111561216857600080fd5b61217485828601611eb9565b92509250509250929050565b600080600080600080600060a0888a03121561219b57600080fd5b600088013567ffffffffffffffff8111156121b557600080fd5b6121c18a828b01611eb9565b9750975050602088013567ffffffffffffffff8111156121e057600080fd5b6121ec8a828b01611eb9565b955095505060406121ff8a828b01611e3b565b93505060606122108a828b01611f2d565b92505060806122218a828b01611e3b565b91505092959891949750929550565b60006020828403121561224257600080fd5b600061225084828501611f2d565b91505092915050565b6000806040838503121561226c57600080fd5b600061227a85828601611f2d565b925050602083013567ffffffffffffffff81111561229757600080fd5b6122a385828601611f03565b9150509250929050565b6122b681612984565b82525050565b6122c581612996565b82525050565b60006122d6826128c2565b6122e081856128d8565b93506122f0818560208601612a07565b6122f981612b73565b840191505092915050565b600061230f826128cd565b61231981856128e9565b9350612329818560208601612a07565b61233281612b73565b840191505092915050565b600061234a602d836128e9565b915061235582612b84565b604082019050919050565b600061236d6032836128e9565b915061237882612bd3565b604082019050919050565b60006123906026836128e9565b915061239b82612c22565b604082019050919050565b60006123b36025836128e9565b91506123be82612c71565b604082019050919050565b60006123d6601c836128e9565b91506123e182612cc0565b602082019050919050565b60006123f96024836128e9565b915061240482612ce9565b604082019050919050565b600061241c6019836128e9565b915061242782612d38565b602082019050919050565b600061243f6029836128e9565b915061244a82612d61565b604082019050919050565b6000612462602e836128e9565b915061246d82612db0565b604082019050919050565b6000612485602e836128e9565b915061249082612dff565b604082019050919050565b60006124a86020836128e9565b91506124b382612e4e565b602082019050919050565b60006124cb6020836128e9565b91506124d682612e77565b602082019050919050565b60006124ee602f836128e9565b91506124f982612ea0565b604082019050919050565b60006125116018836128e9565b915061251c82612eef565b602082019050919050565b60006125346021836128e9565b915061253f82612f18565b604082019050919050565b6000612557603d836128e9565b915061256282612f67565b604082019050919050565b612576816129ee565b82525050565b600060208201905061259160008301846122ad565b92915050565b60006080820190506125ac60008301876122ad565b6125b960208301866122ad565b6125c6604083018561256d565b81810360608301526125d881846122cb565b905095945050505050565b60006020820190506125f860008301846122bc565b92915050565b600060208201905081810360008301526126188184612304565b905092915050565b600060208201905081810360008301526126398161233d565b9050919050565b6000602082019050818103600083015261265981612360565b9050919050565b6000602082019050818103600083015261267981612383565b9050919050565b60006020820190508181036000830152612699816123a6565b9050919050565b600060208201905081810360008301526126b9816123c9565b9050919050565b600060208201905081810360008301526126d9816123ec565b9050919050565b600060208201905081810360008301526126f98161240f565b9050919050565b6000602082019050818103600083015261271981612432565b9050919050565b6000602082019050818103600083015261273981612455565b9050919050565b6000602082019050818103600083015261275981612478565b9050919050565b600060208201905081810360008301526127798161249b565b9050919050565b60006020820190508181036000830152612799816124be565b9050919050565b600060208201905081810360008301526127b9816124e1565b9050919050565b600060208201905081810360008301526127d981612504565b9050919050565b600060208201905081810360008301526127f981612527565b9050919050565b600060208201905081810360008301526128198161254a565b9050919050565b6000602082019050612835600083018461256d565b92915050565b6000612845612856565b90506128518282612a6c565b919050565b6000604051905090565b600067ffffffffffffffff82111561287b5761287a612b44565b5b61288482612b73565b9050602081019050919050565b600067ffffffffffffffff8211156128ac576128ab612b44565b5b6128b582612b73565b9050602081019050919050565b600081519050919050565b600081519050919050565b600082825260208201905092915050565b600082825260208201905092915050565b6000612905826129ee565b9150612910836129ee565b9250827fffffffffffffffffffffffffffffffffffffffffffffffffffffffffffffffff0382111561294557612944612ae6565b5b828201905092915050565b600061295b826129ee565b9150612966836129ee565b92508282101561297957612978612ae6565b5b828203905092915050565b600061298f826129ce565b9050919050565b60008115159050919050565b60007fffffffff0000000000000000000000000000000000000000000000000000000082169050919050565b600073ffffffffffffffffffffffffffffffffffffffff82169050919050565b6000819050919050565b82818337600083830152505050565b60005b83811015612a25578082015181840152602081019050612a0a565b83811115612a34576000848401525b50505050565b60006002820490506001821680612a5257607f821691505b60208210811415612a6657612a65612b15565b5b50919050565b612a7582612b73565b810181811067ffffffffffffffff82111715612a9457612a93612b44565b5b80604052505050565b6000612aa8826129ee565b91507fffffffffffffffffffffffffffffffffffffffffffffffffffffffffffffffff821415612adb57612ada612ae6565b5b600182019050919050565b7f4e487b7100000000000000000000000000000000000000000000000000000000600052601160045260246000fd5b7f4e487b7100000000000000000000000000000000000000000000000000000000600052602260045260246000fd5b7f4e487b7100000000000000000000000000000000000000000000000000000000600052604160045260246000fd5b6000601f19601f8301169050919050565b7f4552433732313a2063616c6c6572206973206e6f7420746f6b656e206f776e6560008201527f72206f7220617070726f76656400000000000000000000000000000000000000602082015250565b7f4552433732313a207472616e7366657220746f206e6f6e20455243373231526560008201527f63656976657220696d706c656d656e7465720000000000000000000000000000602082015250565b7f4f776e61626c653a206e6577206f776e657220697320746865207a65726f206160008201527f6464726573730000000000000000000000000000000000000000000000000000602082015250565b7f4552433732313a207472616e736665722066726f6d20696e636f72726563742060008201527f6f776e6572000000000000000000000000000000000000000000000000000000602082015250565b7f4552433732313a20746f6b656e20616c7265616479206d696e74656400000000600082015250565b7f4552433732313a207472616e7366657220746f20746865207a65726f2061646460008201527f7265737300000000000000000000000000000000000000000000000000000000602082015250565b7f4552433732313a20617070726f766520746f2063616c6c657200000000000000600082015250565b7f4552433732313a2061646472657373207a65726f206973206e6f74206120766160008201527f6c6964206f776e65720000000000000000000000000000000000000000000000602082015250565b7f45524337323155524953746f726167653a2055524920736574206f66206e6f6e60008201527f6578697374656e7420746f6b656e000000000000000000000000000000000000602082015250565b7f496e697469616c697a61626c653a20636f6e747261637420697320616c72656160008201527f647920696e697469616c697a6564000000000000000000000000000000000000602082015250565b7f4552433732313a206d696e7420746f20746865207a65726f2061646472657373600082015250565b7f4f776e61626c653a2063616c6c6572206973206e6f7420746865206f776e6572600082015250565b7f4552433732314d657461646174613a2055524920717565727920666f72206e6f60008201527f6e6578697374656e7420746f6b656e0000000000000000000000000000000000602082015250565b7f4552433732313a20696e76616c696420746f6b656e2049440000000000000000600082015250565b7f4552433732313a20617070726f76616c20746f2063757272656e74206f776e6560008201527f7200000000000000000000000000000000000000000000000000000000000000602082015250565b7f4552433732313a20617070726f76652063616c6c6572206973206e6f7420746f60008201527f6b656e206f776e6572206f7220617070726f76656420666f7220616c6c000000602082015250565b612fbf81612984565b8114612fca57600080fd5b50565b612fd681612996565b8114612fe157600080fd5b50565b612fed816129a2565b8114612ff857600080fd5b50565b613004816129ee565b811461300f57600080fd5b5056fea2646970667358221220783ec4849440dce9b2f33d80687f96a1357f758bb373a93bbeba479bb3ea728564736f6c63430008040033",
  "linkReferences": {},
  "deployedLinkReferences": {}
}